{
  "contractName": "NonFungibleTicket",
  "abi": [
    {
      "inputs": [],
      "payable": false,
      "stateMutability": "nonpayable",
      "type": "constructor"
    },
    {
      "anonymous": false,
      "inputs": [
        {
          "indexed": true,
          "name": "from",
          "type": "address"
        },
        {
          "indexed": true,
          "name": "to",
          "type": "address"
        },
        {
          "indexed": true,
          "name": "deedId",
          "type": "uint256"
        }
      ],
      "name": "Transfer",
      "type": "event"
    },
    {
      "anonymous": false,
      "inputs": [
        {
          "indexed": true,
          "name": "from",
          "type": "address"
        },
        {
          "indexed": true,
          "name": "to",
          "type": "address"
        },
        {
          "indexed": true,
          "name": "deedId",
          "type": "uint256"
        }
      ],
      "name": "Approval",
      "type": "event"
    },
    {
      "constant": false,
      "inputs": [
        {
          "name": "_name",
          "type": "bytes32"
        },
        {
          "name": "_price",
          "type": "uint256"
        },
        {
          "name": "_numTickets",
          "type": "uint256"
        }
      ],
      "name": "printTickets",
      "outputs": [],
      "payable": false,
      "stateMutability": "nonpayable",
      "type": "function"
    },
    {
      "constant": false,
      "inputs": [
        {
          "name": "_name",
          "type": "bytes32"
        },
        {
          "name": "_price",
          "type": "uint256"
        },
        {
          "name": "_owner",
          "type": "address"
        }
      ],
      "name": "createTicket",
      "outputs": [],
      "payable": false,
      "stateMutability": "nonpayable",
      "type": "function"
    },
    {
      "constant": true,
      "inputs": [
        {
          "name": "_deedId",
          "type": "uint256"
        }
      ],
      "name": "ownerOf",
      "outputs": [
        {
          "name": "_owner",
          "type": "address"
        }
      ],
      "payable": false,
      "stateMutability": "view",
      "type": "function"
    },
    {
      "constant": true,
      "inputs": [
        {
          "name": "_deedId",
          "type": "uint256"
        }
      ],
      "name": "getTicketInformation",
      "outputs": [
        {
          "name": "",
          "type": "uint256"
        },
        {
          "name": "",
          "type": "string"
        },
        {
          "name": "",
          "type": "address"
        },
        {
          "name": "",
          "type": "uint256"
        },
        {
          "name": "",
          "type": "uint256"
        },
        {
          "name": "",
          "type": "bool"
        }
      ],
      "payable": false,
      "stateMutability": "view",
      "type": "function"
    },
    {
      "constant": true,
      "inputs": [],
      "name": "getAllDeedIds",
      "outputs": [
        {
          "name": "",
          "type": "uint256[]"
        }
      ],
      "payable": false,
      "stateMutability": "view",
      "type": "function"
    },
    {
      "constant": true,
      "inputs": [],
      "name": "countOfDeeds",
      "outputs": [
        {
          "name": "",
          "type": "uint256"
        }
      ],
      "payable": false,
      "stateMutability": "view",
      "type": "function"
    },
    {
      "constant": true,
      "inputs": [
        {
          "name": "_name",
          "type": "bytes32"
        }
      ],
      "name": "countOfDeedsForEvent",
      "outputs": [
        {
          "name": "_count",
          "type": "uint256"
        }
      ],
      "payable": false,
      "stateMutability": "view",
      "type": "function"
    },
    {
      "constant": false,
      "inputs": [
        {
          "name": "_deedId",
          "type": "uint256"
        },
        {
          "name": "_saleEnabled",
          "type": "bool"
        }
      ],
      "name": "setSale",
      "outputs": [],
      "payable": false,
      "stateMutability": "nonpayable",
      "type": "function"
    },
    {
      "constant": false,
      "inputs": [
        {
          "name": "_to",
          "type": "address"
        },
        {
          "name": "_deedId",
          "type": "uint256"
        }
      ],
      "name": "approve",
      "outputs": [],
      "payable": true,
      "stateMutability": "payable",
      "type": "function"
    },
    {
      "constant": false,
      "inputs": [
        {
          "name": "_deedId",
          "type": "uint256"
        }
      ],
      "name": "takeOwnership",
      "outputs": [],
      "payable": true,
      "stateMutability": "payable",
      "type": "function"
    },
    {
      "constant": true,
      "inputs": [
        {
          "name": "_bytes32",
          "type": "bytes32"
        }
      ],
      "name": "bytes32ToStr",
      "outputs": [
        {
          "name": "",
          "type": "string"
        }
      ],
      "payable": false,
      "stateMutability": "pure",
      "type": "function"
    }
  ],
  "bytecode": "0x6060604052341561000f57600080fd5b610d008061001e6000396000f3006060604052600436106100af576000357c0100000000000000000000000000000000000000000000000000000000900463ffffffff168063095ea7b3146100b45780633932683b146100eb5780636352211e1461011957806375f857ae1461017c5780637f0e7fbf1461026b5780638255dfaf146102ba57806393399486146102f3578063a8841cc01461035d578063b2e6ceeb14610398578063c34588ba146103b0578063ef0b2368146103d9575b600080fd5b6100e9600480803573ffffffffffffffffffffffffffffffffffffffff16906020019091908035906020019091905050610479565b005b34156100f657600080fd5b6101176004808035906020019091908035151590602001909190505061047d565b005b341561012457600080fd5b61013a6004808035906020019091905050610521565b604051808273ffffffffffffffffffffffffffffffffffffffff1673ffffffffffffffffffffffffffffffffffffffff16815260200191505060405180910390f35b341561018757600080fd5b61019d6004808035906020019091905050610561565b60405180878152602001806020018673ffffffffffffffffffffffffffffffffffffffff1673ffffffffffffffffffffffffffffffffffffffff16815260200185815260200184815260200183151515158152602001828103825287818151815260200191508051906020019080838360005b8381101561022b578082015181840152602081019050610210565b50505050905090810190601f1680156102585780820380516001836020036101000a031916815260200191505b5097505050505050505060405180910390f35b341561027657600080fd5b6102b860048080356000191690602001909190803590602001909190803573ffffffffffffffffffffffffffffffffffffffff16906020019091905050610645565b005b34156102c557600080fd5b6102f16004808035600019169060200190919080359060200190919080359060200190919050506108ab565b005b34156102fe57600080fd5b6103066108d4565b6040518080602001828103825283818151815260200191508051906020019060200280838360005b8381101561034957808201518184015260208101905061032e565b505050509050019250505060405180910390f35b341561036857600080fd5b610382600480803560001916906020019091905050610932565b6040518082815260200191505060405180910390f35b6103ae600480803590602001909190505061095a565b005b34156103bb57600080fd5b6103c3610b76565b6040518082815260200191505060405180910390f35b34156103e457600080fd5b6103fe600480803560001916906020019091905050610b7f565b6040518080602001828103825283818151815260200191508051906020019080838360005b8381101561043e578082015181840152602081019050610423565b50505050905090810190601f16801561046b5780820380516001836020036101000a031916815260200191505b509250505060405180910390f35b5050565b813373ffffffffffffffffffffffffffffffffffffffff166002600083815260200190815260200160002060020160009054906101000a900473ffffffffffffffffffffffffffffffffffffffff1673ffffffffffffffffffffffffffffffffffffffff161415156104ee57600080fd5b816002600085815260200190815260200160002060070160006101000a81548160ff021916908315150217905550505050565b60006002600083815260200190815260200160002060020160009054906101000a900473ffffffffffffffffffffffffffffffffffffffff169050919050565b600061056b610c47565b60008060008060026000888152602001908152602001600020600001546105a7600260008a815260200190815260200160002060010154610b7f565b600260008a815260200190815260200160002060020160009054906101000a900473ffffffffffffffffffffffffffffffffffffffff16600260008b815260200190815260200160002060030154600260008c815260200190815260200160002060040154600260008d815260200190815260200160002060070160009054906101000a900460ff1695509550955095509550955091939550919395565b600080549050600073ffffffffffffffffffffffffffffffffffffffff168273ffffffffffffffffffffffffffffffffffffffff161415151561068757600080fd5b600073ffffffffffffffffffffffffffffffffffffffff166002600083815260200190815260200160002060020160009054906101000a900473ffffffffffffffffffffffffffffffffffffffff1673ffffffffffffffffffffffffffffffffffffffff161415156106f857600080fd5b600160005401600081905550600380548060010182816107189190610c5b565b91600052602060002090016000839091909150555061010060405190810160405280828152602001856000191681526020018373ffffffffffffffffffffffffffffffffffffffff168152602001848152602001600160008760001916600019168152602001908152602001600020805490508152602001428152602001600081526020016001151581525060026000838152602001908152602001600020600082015181600001556020820151816001019060001916905560408201518160020160006101000a81548173ffffffffffffffffffffffffffffffffffffffff021916908373ffffffffffffffffffffffffffffffffffffffff160217905550606082015181600301556080820151816004015560a0820151816005015560c0820151816006015560e08201518160070160006101000a81548160ff02191690831515021790555090505060016000856000191660001916815260200190815260200160002080548060010182816108909190610c5b565b91600052602060002090016000839091909150555050505050565b60005b818110156108ce576108c1848433610645565b80806001019150506108ae565b50505050565b6108dc610c87565b600380548060200260200160405190810160405280929190818152602001828054801561092857602002820191906000526020600020905b815481526020019060010190808311610914575b5050505050905090565b6000600160008360001916600019168152602001908152602001600020805490509050919050565b6000806000806000856002600082815260200190815260200160002060070160009054906101000a900460ff16151561099257600080fd5b600260008881526020019081526020016000206003015495503494506002600088815260200190815260200160002060020160009054906101000a900473ffffffffffffffffffffffffffffffffffffffff1693508585101515156109f657600080fd5b6002600088815260200190815260200160002060020160009054906101000a900473ffffffffffffffffffffffffffffffffffffffff169250339150600073ffffffffffffffffffffffffffffffffffffffff168273ffffffffffffffffffffffffffffffffffffffff1614151515610a6e57600080fd5b8273ffffffffffffffffffffffffffffffffffffffff168273ffffffffffffffffffffffffffffffffffffffff1614151515610aa957600080fd5b816002600089815260200190815260200160002060020160006101000a81548173ffffffffffffffffffffffffffffffffffffffff021916908373ffffffffffffffffffffffffffffffffffffffff16021790555060006002600089815260200190815260200160002060070160006101000a81548160ff0219169083151502179055508373ffffffffffffffffffffffffffffffffffffffff166108fc869081150290604051600060405180830381858888f193505050501515610b6d57600080fd5b50505050505050565b60008054905090565b610b87610c47565b610b8f610c9b565b60006020604051805910610ba05750595b9080825280601f01601f191660200182016040525091505b6020811015610c3d578381602081101515610bcf57fe5b1a7f0100000000000000000000000000000000000000000000000000000000000000028282815181101515610c0057fe5b9060200101907effffffffffffffffffffffffffffffffffffffffffffffffffffffffffffff1916908160001a9053508080600101915050610bb8565b8192505050919050565b602060405190810160405280600081525090565b815481835581811511610c8257818360005260206000209182019101610c819190610caf565b5b505050565b602060405190810160405280600081525090565b602060405190810160405280600081525090565b610cd191905b80821115610ccd576000816000905550600101610cb5565b5090565b905600a165627a7a72305820cfb391c973bdcfbe38a8327725d01843289845cde0f18655e2c71287b5aaa2790029",
  "source": "pragma solidity ^0.4.19;\n\nimport \"./ERC721.sol\";\nimport \"./SafeMath.sol\";\nimport \"./PullPayment.sol\";\n\n\ncontract NonFungibleTicket is ERC721 {\n\n    function NonFungibleTicket() public {}\n\n    using SafeMath for uint256;\n\n    struct Ticket {\n        uint256 deedId;\n        bytes32 name;\n        address owner;\n        uint256 price;\n        uint256 seat;\n        uint256 created;\n        uint256 deleted;\n        bool forSale;\n    }\n\n    // method to create multiple tickets\n    function printTickets(bytes32 _name, uint256 _price, uint256 _numTickets)\n    external {\n        for (uint256 i; i < _numTickets; i++) {\n            createTicket(_name, _price, msg.sender);\n        }\n    }\n\n    function createTicket(bytes32 _name, uint256 _price, address _owner)\n    public {  // TODO restrict access to this function\n        uint256 _deedId = totalDeeds;  // TODO race condition?\n        require(_owner != address(0));\n        require(deeds[_deedId].owner == address(0));\n\n        totalDeeds = totalDeeds + 1;\n        allDeeds.push(_deedId);\n        deeds[_deedId] = Ticket({\n            name: _name,\n            owner: _owner,\n            price: _price,\n            created: now,\n            deleted: 0,\n            seat:  eventToDeeds[_name].length,\n            deedId: _deedId,\n            forSale: true\n        });\n        eventToDeeds[_name].push(_deedId);\n    }\n    \n    // Total amount of deeds\n    uint256 private totalDeeds;\n\n    // Mapping from event Name to ID\n    mapping (bytes32 => uint256[]) private eventToDeeds;\n\n    // Mapping from deedId to Ticket\n    mapping (uint256 => Ticket) private deeds;\n\n    uint256[] private allDeeds;\n\n    modifier onlyOwnerOf(uint256 _deedId) {\n        require(deeds[_deedId].owner == msg.sender);\n        _;\n    }\n\n    modifier purchasable(uint256 _deedId) {\n        require(deeds[_deedId].forSale);\n        _;\n    }\n\n    function ownerOf(uint256 _deedId)\n    external view returns (address _owner) {\n        _owner = deeds[_deedId].owner;\n    }\n\n    function getTicketInformation(uint256 _deedId)\n    external view returns (uint256, string, address, uint256, uint256, bool) {\n        return (\n            deeds[_deedId].deedId,\n            bytes32ToStr(deeds[_deedId].name),\n            deeds[_deedId].owner,\n            deeds[_deedId].price,\n            deeds[_deedId].seat,\n            deeds[_deedId].forSale\n        );\n    }\n\n    function getAllDeedIds()\n    external view returns (uint256[]) {\n        return allDeeds;\n    }\n\n    function countOfDeeds()\n    external view returns (uint256) {\n        return totalDeeds;\n    }\n\n    function countOfDeedsForEvent(bytes32 _name)\n    external view returns (uint256 _count) {\n        _count = eventToDeeds[_name].length;\n    }\n\n    function setSale(uint256 _deedId, bool _saleEnabled)\n    external onlyOwnerOf(_deedId) {\n        deeds[_deedId].forSale = _saleEnabled;\n    }\n\n    function approve(address _to, uint256 _deedId)\n    external payable {\n    }\n\n    function takeOwnership(uint256 _deedId)\n    external payable purchasable(_deedId) {\n        uint256 oldPrice = deeds[_deedId].price;\n        uint256 newPrice = msg.value;\n        address oldOwner = deeds[_deedId].owner;\n        require(newPrice >= oldPrice);\n\n        address _from = deeds[_deedId].owner;\n        address _to = msg.sender;\n\n        require(_to != address(0));\n        require(_to != _from);\n\n        deeds[_deedId].owner = _to;\n        deeds[_deedId].forSale = false;\n\n        oldOwner.transfer(newPrice);\n        // balance[oldOwner] = balance[oldOwner] + newPrice; \n\n        // asyncSend(oldOwner, newPrice);\n    }\n\n    function bytes32ToStr(bytes32 _bytes32) public pure returns (string){\n        bytes memory bytesArray = new bytes(32);\n        for (uint256 i; i < 32; i++) {\n            bytesArray[i] = _bytes32[i];\n        }\n        return string(bytesArray);\n    }\n}\n",
  "sourcePath": "/Users/yoheioka/dely/nft-ticket/contracts/NonFungibleTicket.sol",
  "compiler": {
    "name": "solc",
    "version": "0.4.19+commit.c4cbbb05.Emscripten.clang"
  },
  "schemaVersion": "2.0.0",
  "updatedAt": "2018-03-14T03:53:20.112Z"
}